{
    "contractName": "Counter",
    "abi": [
        {
            "inputs": [],
            "name": "count",
            "outputs": [
                {
                    "internalType": "uint256",
                    "name": "",
                    "type": "uint256"
                }
            ],
            "stateMutability": "view",
            "type": "function"
        },
        {
            "inputs": [],
            "name": "getCount",
            "outputs": [
                {
                    "internalType": "uint256",
                    "name": "",
                    "type": "uint256"
                }
            ],
            "stateMutability": "view",
            "type": "function"
        },
        {
            "inputs": [],
            "name": "increment",
            "outputs": [],
            "stateMutability": "nonpayable",
            "type": "function"
        }
    ],
    "bytecode": "6080806040523460135760d6908160188239f35b5f80fdfe60808060405260043610156011575f80fd5b5f3560e01c90816306661abd14608957508063a87d942c14606f5763d09de08a146039575f80fd5b34606b575f366003190112606b575f54600181018091116057575f55005b634e487b7160e01b5f52601160045260245ffd5b5f80fd5b34606b575f366003190112606b5760205f54604051908152f35b34606b575f366003190112606b576020905f548152f3fea2646970667358221220803cbf050ca2cc3bcaa6222458ec8abb19e214788ced8e3ee0b474088be444e464736f6c634300081e0033",
    "sourcePath": "/Users/adamnieslanik/walnut-cli/examples/Counter.sol",
    "compiler": {
        "name": "solc",
        "version": "0.8.30+commit.73712a01"
    },
    "functionHashes": {
        "count()": "06661abd",
        "getCount()": "a87d942c",
        "increment()": "d09de08a"
    },
    "gasEstimates": {
        "creation": {
            "codeDepositCost": "42800",
            "executionCost": "99",
            "totalCost": "42899"
        },
        "external": {
            "count()": "2247",
            "getCount()": "2277",
            "increment()": "24405"
        }
    }
}